:100000000C9451000C94FD2F0C94FD2F0C94FD2F9B
:100010000C94FD2F0C94FD2F0C94FD2F0C94FD2FB0
:100020000C94FD2F0C94FD2F0C94FD2F0C94311982
:100030000C94FD2F0C94FD2F0C94FD2F0C94FD2F90
:100040000C94FD2F0C94FD2F0C9471270C94432DD0
:100050000C94FD2F0C94CF190C94FD2F0C94FD2FB4
:100060000C94FD2F0C94FD2F55125C1263126A1232
:1000700071127E128B1298129F12AC12B912C61214
:10008000CD12DA12E7120B131813251332133F1394
:100090004C1359136613731380138D13010002E878
:1000A000800011241FBECFEFD8E0DEBFCDBFECE94A
:1000B000F0E040E017C0B591A591359125910591EB
:1000C00007FD0CC095918591EF01F92FE82F059060
:1000D0000D92A217B307D9F7FE0104C01D92A21713
:1000E000B307E1F7E13AF40731F70E94EC010C9411
:0600F000F22EF894FFCF90
:1000F60041540D0A0041542B56455253494F4E0D5B
:100106000A0041542B4E414D450D0A0041542B50D7
:10011600494E0D0A0041542B474554535441540D42
:100126000A0041542B524F4C450D0A0041542B52A4
:100136004F4C45300D0A0041542B524F4C45310D62
:100146000A0041542B524F4C45320D0A0041542BA4
:10015600524F4C45330D0A0041542B524F4C4534F7
:100166000D0A0041542B4C414444520D0A0041549F
:100176002B414456490D0A0041542B4144564930FF
:100186000D0A0041542B41445649310D0A00415491
:100196002B41445649320D0A0041542B41445649DD
:1001A600330D0A0041542B41445649340D0A00418F
:1001B600542B41445649350D0A0041542B414456AF
:1001C60049360D0A0041542B545950450D0A004139
:1001D600542B54595045300D0A0041542B54595054
:1001E60045310D0A0041542B54595045320D0A0031
:1001F60041542B424155440D0A0041542B4241556E
:1002060044360D0A0041542B555549440D0A004108
:10021600542B434841520D0A0041542B4942535531
:100226005549440D0A0041542B4D414A4F520D0A7F
:100236000041542B4D494E4F520D0A0041542B5349
:100246004C4545500D0A0041542B494E510D0A00AC
:1002560041542B494E51300D0A0041542B494E5101
:10026600310D0A0041542B42414E440D0A004154BF
:100276002B434C5242414E440D0A0041542B4449F3
:1002860053430D0A0041542B52455345540D0A0061
:1002960041542B48454C500D0A0041542B50494EB1
:1002A6003132333435360D0A0041542B50494E361F
:1002B60035343332310D0A0041542B50494E393111
:1002C600363931390D0A0041542B4E414D454254C1
:1002D60030350D0A0041542B4E414D45486F6D6532
:1002E600310D0A0041542B4E414D45486F6D653224
:1002F6000D0A0041542B4E414D45486F6D65330D37
:100306000A0041542B4E414D45486F6D65340D0A28
:0103160000E6
:100317006F6666000D0A0057656C636F6D65006256
:10032700743035202D3E0054657374696E672C2038
:100337003120322033007330300D0A006F6E2000F9
:10034700733030206F66660D0A007330310D0A0076
:10035700733031206F66660D0A007330320D0A0064
:10036700733032206F66660D0A007330330D0A0052
:10037700733033206F66660D0A00616C6C206F6600
:0D038700660D0A007374617475730D0A0031
:1003940068076C094C836A9074A07AC000806888EE
:0603A40000846C82008160
:1003AA00494E4600696E66004E414E006E616E000F
:1003BA00494E4600696E66004E414E006E616E00FF
:0703CA00286E756C6C290020
:0603D100286E696C290092
:1003D800CF93DF93CDB7DEB7EF970FB6F894DEBFB4
:1003E8000FBECDBF0E94A227EBE9F1E085E491E0C2
:1003F8009183808385E891E09187808789E491E003
:100408009383828389E891E0938782878DE491E0E2
:10041800958384838DE891E09587848781E591E0D1
:100428009783868381E991E09787868710926E018A
:1004380009C0E82FF0E0EB5BFE4F90E290838F5FFE
:1004480080936E0180916E01823198F310926E0153
:1004580009C0E82FF0E0EB57FE4F90E290838F5FE2
:1004680080936E0180916E01823198F3A5E4B1E02A
:100478008AE050968C935097E5E8F1E0808B51968E
:100488001C92118A109281011092820110928301AC
:100498001092840181E08093440110929701109298
:1004A80098011092990110929A01CE0101960E942A
:1004B800031B0F2EF8E2CF2ED12CF02D0F2EF6E2D3
:1004C800EF2EF12CF02D07E210E025E230E043E2B8
:1004D80050E064E270E0CE0101960E94FD1E86E1C4
:1004E800FE013196AEE2B1E001900D928A95E1F7F6
:1004F8000F2EF7E0EF2EF02D05E024E04BE250E060
:100508006AE270E0CE0101960E9414298FE0FE0194
:100518003196A7E5B1E001900D928A95E1F7E12CBB
:10052800F12C01E010E028E030E040E056E960E01E
:1005380070E0CE0101960E9414150E94D327E6E6CA
:10054800F1E02083318342835383648375838683F8
:1005580097830E94D327EBEAF1E02083318342831B
:100568005383648375838683978342E064E0CE0176
:1005780001960E9434120E94E82FDC015296ED91F8
:10058800FC91539780E094E009950E94E82FDC01E4
:100598001E96ED91FC911F978FEF9AE10995E091D6
:1005A8006201F09163016FEF87E591E009950E9480
:1005B800F42FDC01DC96ED91FC91DD970BE911E05D
:1005C80047E153E060E0D80118968D919C91199706
:1005D80009950E94F42FDC01DC96ED91FC91DD97E2
:1005E80047E153E060E0D8011A968D919C911B97E2
:1005F80009950E94F42FDC01DC96ED91FC91DD97C2
:1006080047E153E060E0D8011C968D919C911D97BD
:1006180009950E94F42FDC01DC96ED91FC91DD97A1
:1006280047E153E060E0D8011E968D919C911F9799
:100638000995B1E0BFAF80E0FF24FA94811138C07A
:10064800E0914201F091430109950E94CD2FFC01F0
:1006580010810E94CA2FDC018C9144E064E00E9462
:10066800F929107F612F682BE0916C01F0916D01E1
:1006780086E691E00995C090B101D090B2010E9440
:10068800D02FFC0160818BEA91E0F60109950E9468
:10069800EE2F0BE113E020E043E352E063E572E064
:1006A8000E947E209093E2028093E10281E0C6CF0F
:1006B800813021F6FFADF23009F452C018F4F13060
:1006C80049F01CC12FAD233009F490C0243009F43F
:1006D800CFC014C18091B00182FF08C0E0913E01F3
:1006E800F0913F01099582E08FAF08C10E94F72F72
:1006F800DC015296ED91FC91539760E070E080E048
:1007080090E009950E94F72FDC011696ED91FC9177
:1007180017978AE309950E94F72FDC011C96ED9143
:10072800FC911D9763E372E080E84FE009950E9411
:10073800F72FDC015296ED91FC91539760E070E041
:1007480081E090E009950E94F72FDC011C96ED915D
:10075800FC911D9765E871E080E840E10995CEC0FD
:100768008091B00182FF08C0E0913E01F0913F0105
:100778000995B3E0BFAFC2C00E94F72FDC015296C3
:10078800ED91FC91539760E070E080E090E009956E
:100798000E94F72FDC011E96ED91FC911F9784E0D3
:1007A80009950E94F72FDC011C96ED91FC911D978D
:1007B80047E06EE173E080E009950E94F72FDC01C5
:1007C8005296ED91FC91539760E070E081E090E0E3
:1007D80009950E94F72FDC011C96ED91FC911D975D
:1007E80065E871E080E840E1099588C08091B00132
:1007F80082FF08C0E0913E01F0913F010995B4E005
:10080800BFAF7CC00E94F72FDC015296ED91FC919E
:10081800539760E070E080E090E009950E94F72F20
:10082800DC011E96ED91FC911F9784E00995E091FB
:100838003A01F0913B0147E066E273E080E00995F8
:100848008091B00183FF5AC00E94EE2FFC010485FD
:10085800158582E090E00E94000DF80109950E943C
:10086800EE2FDC011696ED91FC911797099546C07D
:100878008091B00182FD40C00E94F72FDC015296A2
:10088800ED91FC91539760E070E080E090E009956D
:100898000E94F72FDC011C96ED91FC911D9740E119
:1008A8006EE273E080E009950E94F72FDC01529612
:1008B800ED91FC91539760E070E081E090E009953C
:1008C8000E94F72FFC01048515850E94F42FDC0196
:1008D800D496ED91FC91D59760919701709198010C
:1008E8008091990190919A0142E00995BC0180E8B4
:1008F80040E1F801099502C0F1E0FFAFE091620123
:10090800F09163016F2D87E591E0099583E592E009
:100918006C0120E8E22E2DE333E040E08E2DB60195
:100928000E94A32A892B21F080916B0180FF27C0A8
:10093800F0FE13C08F2D8E7FF82E0E94F42FDC015D
:10094800DC96ED91FC91DD9743E453E060E0809103
:10095800A3019091A401099512C0BF2DB160FB2E8F
:100968000E94F42FDC01DC96ED91FC91DD9747E1C4
:1009780053E060E08091A3019091A401099527E4D8
:1009880033E040E08E2DB6010E94A32A892B91F412
:10099800BF2DB160FB2E0E94F42FDC01DC96ED9197
:1009A800FC91DD9747E153E060E08091A3019091CD
:1009B800A401099521E533E040E08E2DB6010E949F
:1009C800A32A892B21F080916B0181FF27C0F1FEBA
:1009D80013C0BF2DBD7FFB2E0E94F42FDC01DC96D7
:1009E800ED91FC91DD9743E453E060E08091A5012F
:1009F8009091A601099512C0BF2DB260FB2E0E94EE
:100A0800F42FDC01DC96ED91FC91DD9747E153E092
:100A180060E08091A5019091A601099527E533E052
:100A280040E08E2DB6010E94A32A892B91F4BF2D98
:100A3800B260FB2E0E94F42FDC01DC96ED91FC9154
:100A4800DD9747E153E060E08091A5019091A60110
:100A5800099521E633E040E08E2DB6010E94A32AD5
:100A6800892B21F080916B0184FF27C0F2FE13C00F
:100A7800BF2DBB7FFB2E0E94F42FDC01DC96ED918D
:100A8800FC91DD9743E453E060E08091A7019091E9
:100A9800A801099512C0BF2DB460FB2E0E94F42F47
:100AA800DC01DC96ED91FC91DD9747E153E060E0D5
:100AB8008091A7019091A801099527E633E040E0CD
:100AC8008E2DB6010E94A32A892B91F4BF2DB46004
:100AD800FB2E0E94F42FDC01DC96ED91FC91DD9752
:100AE80047E153E060E08091A7019091A801099542
:100AF80021E733E040E08E2DB6010E94A32A892B1E
:100B080021F080916B0185FF27C0F3FE13C0BF2D34
:100B1800B77FFB2E0E94F42FDC01DC96ED91FC914F
:100B2800DD9743E453E060E08091A9019091AA0128
:100B3800099512C0BF2DB860FB2E0E94F42FDC016E
:100B4800DC96ED91FC91DD9747E153E060E0809100
:100B5800A9019091AA01099527E733E040E08E2D7D
:100B6800B6010E94A32A892B91F4BF2DB860FB2EF1
:100B78000E94F42FDC01DC96ED91FC91DD9747E1B2
:100B880053E060E08091A9019091AA01099521E8BC
:100B980033E040E08E2DB6010E94A32A892B09F08C
:100BA80044C00E94F42FDC01DC96ED91FC91DD97A6
:100BB8000BE911E047E153E060E0D80118968D9108
:100BC8009C91199709950E94F42FDC01DC96ED9110
:100BD800FC91DD9747E153E060E0D8011A968D91CA
:100BE8009C911B9709950E94F42FDC01DC96ED91EE
:100BF800FC91DD9747E153E060E0D8011C968D91A8
:100C08009C911D9709950E94F42FDC01DC96ED91CB
:100C1800FC91DD9747E153E060E0D8011E968D9185
:100C28009C911F970995FF24FA942BE833E040E044
:100C38008E2DB6010E94A32A892B51F40E94EE2F13
:100C4800DC011C96ED91FC911D9785E891E00995D2
:040C580080E0F4CC78
:100C5C00A5E2B0E0E4E3F6E00C94D42B9F8F8E8FEA
:100C6C007F8B6E8B298FFB010190F081E02DFA8731
:100C7C00E987FB0102811381248135813B8B2A8B0F
:100C8C008085918599A388A30680F781E02DFA834E
:100C9C00E983FA0180809180A280B38020E030E06B
:100CAC00A901C501B4010E94AC2F87FF06C0B7FA99
:100CBC00B094B7F8B0948DE204C0F985F2FF68C324
:100CCC008BE2E981FA8180832A893B8921503109A1
:100CDC003C832B8341E050E0598B488B06C08A89BA
:100CEC009B899C838B83198A188AD501C401BF7791
:100CFC000097E0E8AE07EFE7BE07F1F4F98D2F2F70
:100D0C00FF0F330B2154310989819A814889598904
:100D1C00840F951F2A31310520F44AEB53E060E033
:100D2C0003C04EEB53E060E00E94612E89819A81F2
:100D3C003C01E0E88E2E19C30197A048BF47F0F0A4
:100D4C00498D242F440F330B2154310989819A8109
:100D5C00E889F9898E0F9F1F2A31310520F442EC66
:100D6C0053E060E003C046EC53E060E00E94612E6B
:100D7C0029813A81390140E8842EF7C220E030E025
:100D8C00A901C501B4010E94AC2FC12CD12C20E8C3
:100D9C00E22E2FE3F22E212C312C882309F487C06C
:100DAC008D829E82AF82B88620E030E040E251E432
:100DBC00C701B6010E94C62F2B013C01D501C4010D
:100DCC0084199509A609B709B7FF07C0B095A09576
:100DDC00909581959F4FAF4FBF4F0297A105B105DD
:100DEC0034F45FEF251A350A73016201DDCFA501DA
:100DFC009401C301B2010E94AC2F87FDF2CF8D810B
:100E0C009E81AF81B8858C199D09AE09BF090196E9
:100E1C00A11DB11D0397A105B10508F446C01E82A2
:100E2C001D82A5019401C701B6010E94B12F1816AD
:100E3C00F4F584ED28168EEF3806E4F4ED81FE818E
:100E4C00EF2BC1F420E030E040E85AE5C501B401D5
:100E5C000E94C62F4B015C0120E030E040E85AE5CF
:100E6C00C701B6010E94C62F6B017C0121E030E066
:100E7C003E832D8320E030E040E251E4C701B6010F
:100E8C000E94C22F6B017C0131E0231A3108D5017D
:100E9C00C4018C199D09AE09BF090196A11DB11D94
:100EAC000397A105B10508F0BCCF46015701498D48
:100EBC00842F440F990B0E94392F888F17FD03C084
:100ECC001E830D8304C086E090E09E838D83988DF5
:100EDC00973639F4012B41F4E1E0F0E0FE83ED8329
:100EEC0003C0488D4F8710C02CEF22162FEF32060F
:100EFC000CF453C22D813E81221633060CF04DC2E8
:100F0C0037FE4EC256E65F878D819E8101969E8389
:100F1C008D839F85963699F437FE08C0C12CD12C51
:100F2C0090E8E92E9FE3F92E212C312CE88DE73641
:100F3C0031F02D813E81220D331D3E832D831C2DDE
:100F4C00DCA2EAA20F2D8B869C86AD86BE861D8AFE
:100F5C001C8A8C899D89ED81FE818E179F07DCF59B
:100F6C00212F3CA14AA1502F6B857C858D859E85B8
:100F7C000E94C22F0E94051C2B013C010E94792F5C
:100F8C006A8FA3019201612F7CA18AA1902F0E94EC
:100F9C00C62F2B853C854D855E850E945D2F9B0160
:100FAC00AC0150582B873C874D875E8720E030E0A2
:100FBC0040E251E4612F7CA18AA1902F0E94C22FA4
:100FCC00162F7CA38AA3092F4C895D894F5F5F4F35
:100FDC005D8B4C8BBECF20E030E040EA50E4612FBB
:100FEC007CA18AA1902F0E94C62F2B013C019B0152
:100FFC00AC016B857C858D859E850E94AC2F87FD11
:10100C000DC0A30192016B857C858D859E850E9408
:10101C00AC2F811106C0FA8DF0FD03C0412C512C70
:10102C003201A5019401C301B2010E945E2F4B0154
:10103C005C0120E030E040E251E4C701B6010E94BF
:10104C00C62F6B877C8B182F092F9B01482F592F8C
:10105C00C501B4010E94B12F87FD11C02FEF221AD8
:10106C00320A3F85363679F44D815E814F5F5F4F92
:10107C005E834D835B855CA38C898DA30BC0CB8673
:10108C00DC8A1E2D0F2D9F85953631F0EB85ECA358
:10109C00FC89FDA3710106C02B852CA33C893DA3C3
:1010AC00E12CF12C48885988C12CD12C1D8A1C8A22
:1010BC001C861B8649855A85407155275BA34AA31C
:1010CC002B853C854D815E812417350734F08C8946
:1010DC009D89892B09F497C0A3C03201EE89FF8941
:1010EC008085918505974816590688F72CA13DA156
:1010FC00412F502FC501B4010E94C22F0E94051C24
:10110C006A8F7B8F8C8F9D8F0E94792F6A3071052F
:10111C0014F069E070E08AA19BA1892B69F4611538
:10112C00710551F4988D973639F4F7FE05C03601E8
:10113C00EFEF6E1A7E0A3BC02C893D89232BA1F45C
:10114C00F7FE12C03FEF431A530AE981FA81E60D0C
:10115C00F71D4EE240838B819C8101979C838B838E
:10116C00E1E0F0E0FD8BEC8BE981FA81E40DF51DFB
:10117C0036016114710431F020E3219331E0631ADC
:10118C007108F7CFC601840D951D2B813C812C195C
:10119C003D092C014FEF441A540AE981FA81E80FFA
:1011AC00F91F605D6083C90101979C838B832A8D35
:1011BC003B8D4C8D5D8D6CA17DA1812F902F0E945C
:1011CC00C62FA50194010E945D2F4B015C01B7FA5B
:1011DC00B094B7F8B09420E030E040E251E46CA158
:1011EC007DA1812F902F0E94C22F6CA37DA3182F5D
:1011FC00092F91E0E91AF108EB85FC853196FC8703
:10120C00EB8763015DCFF985F4FF0AC0E981FA81B0
:10121C00E40DF51D8EE2808392012F5F3F4F290173
:10122C0049815A81440D551D5E834D83FA0110820C
:10123C00FF85F53609F063C0E981FA8128A139A14F
:10124C00E20FF31F3197108237FE06C031942194C0
:10125C00310801E010E002C000E010E0E8A1F9A1C3
:10126C00319749815A81E40FF51F22E030E08AE082
:10127C00E82EF12CCF0149815A81841B950B211446
:10128C00310479F0C101B7010E946C2D805D82930D
:10129C001B01215031098B819C8101979C838B838D
:1012AC00E9CF1216130674F3FC013197E40FF51F06
:1012BC00012B11F42BE201C02DE220830297E9816E
:1012CC00FA81E80FF91F598D252F550F330B215437
:1012DC0031092A31310510F025E601C025E42083BF
:1012EC002B813C81225031093C832B8348165906B3
:1012FC0034F4AF0160E88D819E810E94612E49819A
:10130C005A813A0180E8882E998591FF2EC090FD74
:10131C002CC0EB81FC811E161F063CF5882DB301F9
:10132C000E942D2D29813A81820F931F9C014981A6
:10133C005A81241B350BE889F9892E173F074CF08D
:10134C00FC012081EB81FC81E80FF91F20830197C0
:10135C00EDCF4B815C8160E370E089819A818E0FC7
:10136C009F1F0E94072F1B8A1A8A882DB3010E9487
:10137C002D2DE984FA840A891B899C01682DA3010F
:10138C008E8D9F8D0E940324A596E2E10C94F02B88
:10139C00598553FFA4CC80E294CC35E63F87CFCD62
:0613AC0046E64F87CCCDA0
:1013B200A0E2B0E0EFEDF9E00C94D42B9B8F8A8F82
:1013C200FB012E8B20812D8331813C8F8281938181
:1013D200998B888B248135813B872A8780859185EB
:1013E2009E8F8D8F46805780FA01C080D180E28027
:1013F200F38020E030E0A901C701B6010E94AC2FC2
:1014020087FF06C0F7FAF094F7F8F0948DE204C073
:101412005D8152FFEFC28BE2F20180832A853B8518
:10142200215031093987288741E050E05C834B83A2
:1014320006C08A859B85998788871C821B82B70193
:10144200A6017F774115510590E869079FE7790763
:10145200D1F4AE892A2FAA0F330B215431098B8183
:101462009C81840D951D2A31310520F44AEA53E00E
:1014720060E003C04EEA53E060E00E94612E6EEA33
:1014820073E080E01EC0EE892E2FEE0F330B8B81AE
:101492009C81840D951D4130510560487F47D8F0ED
:1014A200215431092A31310520F442EB53E060E046
:1014B20003C046EB53E060E00E94612E66EB73E0EE
:1014C20080E00E942D2DA20160E8ED80FC8C0A854F
:1014D2001B859C0187C240E3FC014083EB81FC81B8
:1014E2003196E40DF51D4B815C814E5F5F4F5C834D
:1014F2004B83C90181549109998F888F4A9710F0C3
:1015020088E701C088E5808320E030E0A901C701B7
:10151200B6010E94AC2F612C712C1F8E18A2882359
:1015220009F464C090E89983AFE3AA832F8D38A1B0
:1015320049815A816F8D78A189819A810E945E2F9B
:101542005B018C01A70196010E94B12F18160CF4C1
:1015520042C0EFEF6E1A7E0AAF8EB8A209831A83D9
:10156200E5CF20E030E040E05FE36F8D78A1898134
:101572009A810E94C62F20E030E0A9010E94AC2F80
:10158200811118C020E030E040E85AE56F8D78A163
:1015920089819A810E94C62F6F8F78A389839A834B
:1015A20020E030E040E85AE5C701B6010E94C62FAC
:1015B2006B017C0120E030E040E05FE36F8D78A1B9
:1015C20089819A810E94C62F6F8F78A389839A831B
:1015D200F1E06F1A71082F8D38A149815A81C70134
:1015E200B6010E94AC2F87FDBCCF04C020E829833E
:1015F2003FE33A834889598957FD02C0CA0102C0B4
:1016020088E190E0FC013196FD87EC878F8C98A0F1
:10161200A980BA80160187011F821E829401A5014A
:10162200B101C8010E94C22F0E94051C6A8B7B8BEC
:101632008C8B9D8B9401A5010E94C62F9B01AC014E
:10164200B101C8010E945D2F1B018C0120E030E036
:1016520040E85DE3B401C5010E94C62F4B015C0165
:101662002E813F812F5F3F4F3F832E8348895989C7
:1016720057FF09C020E030E0A901B101C8010E9472
:10168200AC2F882341F08C859D85EE81FF81E81780
:10169200F90724F204C02E813F813D872C8720E088
:1016A20030E040E051E4B401C5010E94C62F4B0175
:1016B2005C019B01AC01B101C8010E94AC2F87FD06
:1016C20012C0A5019401B101C8010E94AC2F811181
:1016D2000DC06A897B898C899D890E94792F6170EE
:1016E2007727672B19F4812C912C5401A5019401C1
:1016F200C701B6010E945E2F6B017C01DC01CB01A8
:10170200BF770097A048BF4709F4A3CE2884398445
:1017120042E0241A31088C859D8591958195910925
:101722009B8B8A8B0B811C81A12CB12C1F821E8268
:10173200812C912CED8DFE8D3597FF8BEE8B1987C9
:101742000887EE89FF890E171F0708F092C02F8DB8
:1017520038A149815A81C701B6010E94C22F0E9455
:10176200051C6C877D878E879F870E94792FAB012E
:101772006115710539F48114910421F0FFEFAF1A5C
:10178200BF0A4EC02E813F81232B91F48114910414
:1017920079F00F5F1F4FE885F985E40DF51D3EE2F4
:1017A2003083A1E02A1A3108E1E0F0E0FF83EE8302
:1017B200F201E00FF11F95012115310529F0A0E397
:1017C200A19321503109F8CFF801EA0DFB1DF987E9
:1017D200E8872A183B084A3051051CF4605D7F4FA8
:1017E20002C0695A7F4F288D398D2A31310550F454
:1017F200CB018062815691094A9720F4CB010E9465
:10180200102FBC01088519850F5F1F4FE885F985E8
:10181200E40DF51D608331E0231A3108A12CB12CAF
:101822002F8D38A149815A816C857D858E859F8552
:101832000E94C62F9B01AC01C701B6010E945D2F19
:101842006B017C0120E030E040E85DE36F8D78A120
:1018520089819A810E94C62F6F8F78A389839A8388
:1018620041E0841A91088A899B898815990509F0B3
:1018720066CF2E813F81232B51F5F201E00FF11F3C
:10188200A114B104E9F04889598914161506C4F463
:101892005D8150FD15C08EE28083F8013196E40D22
:1018A200F51DC50120E321930197E9F70A0D1B1DE0
:1018B2000F5F1F4FC50180959095280E391E07C0F6
:1018C2008D8184FF04C08EE280830F5F1F4FF2017F
:1018D200E00FF11FFF83EE831082ED8DFE8D3197B5
:1018E200E40DF51D108277FE07C0719461947108B2
:1018F200EE24E394F12C02C0E12CF12C21E030E043
:101902008AE0C82ED12CCF01841995096114710483
:1019120069F0C301B6010E946C2D805D82933B0188
:101922002150310941E0241A3108EDCF213031052F
:1019320081F3FC013197E40DF51DEF2811F42BE240
:1019420001C02DE220830297F201E80FF91F288DD2
:10195200398D2A31310510F020E701C020E52083BE
:101962000817190734F4AF0160E88E819F810E9445
:10197200612E320130E8832E4D8141FF28C040FDA7
:1019820026C052E0251A31081214130404F5882DDA
:10199200B3010E942D2D840D951D9C01241935093A
:1019A2004B815C81241735073CF0FC012081E20D5C
:1019B200F31D20830197F1CFA10160E370E08B81D9
:1019C2009C81840D951D0E94072F1B861A86882DE7
:1019D200B3010E942D2DED80FC8C0A851B859C0194
:1019E200682DA3018A8D9B8D0E940324A096E2E1BB
:0E19F2000C94F02B5D8153FF1CCD80E20DCDD7
:101A00008636910509F41FC108F05FC08231910547
:101A100009F4F4C180F58B30910509F43BC1B8F4A9
:101A20008330910509F4DDC040F48130910509F45B
:101A3000C4C0029709F4CBC09FC28530910509F458
:101A4000E4C008F4D8C00A9709F4E9C095C28E3002
:101A5000910509F4A1C140F48C30910509F424C129
:101A60000D9709F471C188C28031910509F4B2C1A2
:101A700008F4A6C1B9C18931910509F405C288F4F9
:101A80008531910509F4D8C140F48331910509F4F9
:101A9000BFC1449709F4C6C16FC2489708F0EAC1B4
:101AA00074C28D31910509F403C220F44B9709F4F7
:101AB000F5C16BC28F31910509F404C208F465C207
:101AC0008536910509F4B5C057C282399105E8F50C
:101AD0008D38910508F059C28C37910509F40CC175
:101AE000C8F48936910509F4CCC048F487369105CD
:101AF00009F4B3C08836910509F4B9C03DC28A37EC
:101B0000910509F4E5C008F0EDC08937910509F4A5
:101B1000D5C032C28F37910509F40CC148F48D3716
:101B2000910509F4F3C08E37910509F4F9C024C278
:101B30008438910509F41CC18538910509F422C146
:101B40008338910509F018C209C1823223E0920757
:101B500009F4CCC1B0F48539910528F48339910595
:101B600008F424C112C2843D910509F479C181327F
:101B700023E0920709F4B0C1833D910509F0FCC14F
:101B800065C1863823E0920709F4CEC150F4833250
:101B900023E0920709F4B4C18538934009F4BAC12F
:101BA000EBC1883823E0920709F4D2C108F4C6C11A
:101BB0008938934009F4D6C1DFC125E030E046EF13
:101BC00050E060E080E091E00E948C2CDEC12DE0CE
:101BD00030E04BEF50E060E080E091E00E948C2C20
:101BE000D4C12AE030E048E051E060E080E091E0DC
:101BF0000E948C2CCAC129E030E042E151E060E053
:101C000080E091E00E948C2CC0C12DE030E04BE1DF
:101C100051E060E080E091E00E948C2CB6C12AE0A7
:101C200030E048E251E060E080E091E00E948C2CDE
:101C3000ACC12BE030E042E351E060E080E091E0B5
:101C40000E948C2CA2C12BE030E04DE351E060E01B
:101C500080E091E00E948C2C98C12BE030E048E4B9
:101C600051E060E080E091E00E948C2C8EC12BE07E
:101C700030E043E551E060E080E091E00E948C2C90
:101C800084C12BE030E04EE551E060E080E091E07F
:101C90000E948C2C2BE030E049E651E060E080E0CF
:101CA00091E00E948C2C71C12AE030E044E751E0C1
:101CB00060E080E091E00E948C2C67C12BE030E076
:101CC0004EE751E060E080E091E00E948C2C5DC125
:101CD0002BE030E049E851E060E080E091E00E94D4
:101CE0008C2C53C12BE030E044E951E060E080E00F
:101CF00091E00E948C2C49C12BE030E04FE951E08B
:101D000060E080E091E00E948C2C3FC12BE030E04D
:101D10004AEA51E060E080E091E00E948C2C35C1FD
:101D20002BE030E045EB51E060E080E091E00E9484
:101D30008C2C2BC12BE030E040EC51E060E080E0E7
:101D400091E00E948C2C21C12AE030E04BEC51E064
:101D500060E080E091E00E948C2C17C12BE030E025
:101D600045ED51E060E080E091E00E948C2C0DC1D7
:101D70002BE030E040EE51E060E080E091E00E9436
:101D80008C2C03C12BE030E04BEE51E060E080E0B2
:101D900091E00E948C2CF9C02AE030E046EF51E03F
:101DA00060E080E091E00E948C2CEFC02BE030E0FE
:101DB00040E052E060E080E091E00E948C2CE5C0C1
:101DC0002AE030E04BE052E060E080E091E00E94E9
:101DD0008C2CDBC02AE030E045E152E060E080E09E
:101DE00091E00E948C2CD1C02DE030E04FE152E018
:101DF00060E080E091E00E948C2CC7C02BE030E0D6
:101E00004CE252E060E080E091E00E948C2CBDC08A
:101E10002BE030E047E352E060E080E091E00E9498
:101E20008C2CB3C02BE030E042E452E060E080E074
:101E300091E00E948C2CA9C029E030E04DE452E0F2
:101E400060E080E091E00E948C2C9FC02AE030E0AE
:101E500046E552E060E080E091E00E948C2C95C065
:101E60002AE030E040E652E060E080E091E00E944D
:101E70008C2C8BC02AE030E04AE652E060E080E043
:101E800091E00E948C2C81C02DE030E044E752E0CC
:101E900060E080E091E00E948C2C77C02AE030E086
:101EA00041E852E060E080E091E00E948C2C6DC03F
:101EB0002BE030E04BE852E060E080E091E00E94EF
:101EC0008C2C63C02AE030E046E952E060E080E01C
:101ED00091E00E948C2C59C02FE030E040EA52E0A3
:101EE00060E080E091E00E948C2C4FC02FE030E059
:101EF0004FEA52E060E080E091E00E948C2C45C007
:101F00002FE030E04EEB52E060E080E091E00E9494
:101F10008C2C3BC02EE030E04DEC52E060E080E0E5
:101F200091E00E948C2C31C02FE030E04BED52E06C
:101F300060E080E091E00E948C2C27C02FE030E030
:101F40004AEE52E060E080E091E00E948C2C1DC0DF
:101F50002FE030E049EF52E060E080E091E00E9445
:101F60008C2C13C02FE030E048E053E060E080E0CC
:101F700091E00E948C2C09C025E030E046EF50E053
:101F800060E080E091E00E948C2C80E091E0089578
:101F90002F923F924F926F927F928F929F92AF9229
:101FA000BF92CF92DF92EF92FF920F931F93CF9346
:101FB000DF93CDB7DEB762970FB6F894DEBF0FBEE2
:101FC000CDBF4C016B0138011A8219828FEF9FEF50
:101FD0009C838B831E821D8258874F833A87298773
:101FE000A12CB12CD6012D913D914C912A0D3B1D78
:101FF000411DB7FC4A95F901849147FD808181110B
:1020000016C0F601208331834283F901849147FD94
:102010008081853209F00FC21901442EFFEF2F1A7B
:102020003F0A4F0AD6012D923D924C921BC0853239
:1020300041F3B401082E000C990B0E94B7234FEF17
:10204000A41AB40ACFCF2C32DCF02D3229F5298125
:102050003A8121603A8329830196A11DF60180838C
:102060009183A283F60180819181A281FC01249158
:10207000A7FD20812B3239F729813A812460EACFEC
:10208000203221F429813A812860E4CF233251F4AF
:1020900029813A812061DECF203321F429813A81E0
:1020A0002260D8CFB701C6010E9422269E838D836D
:1020B00097FF0BC029813A81F1E02F273A832983CA
:1020C0009195819591099E838D8389819A8180FF65
:1020D00003C08D7F9A838983F60180819181A281DB
:1020E000FC012491A7FD20812E3261F40196A11DEF
:1020F000F60180839183A283B701C6010E94222644
:102100009C838B83C6010E948222182FD6012C91BA
:1021100011968C91119712969C91E22FF82F849131
:1021200097FD8081082E000C990B0E94392F89366B
:1021300009F44AC084F4833609F419C134F48532B1
:1021400009F445C18136E1F050C18436E9F18836A1
:102150000CF4E9C04AC1803709F4B0C03CF48E36B3
:1021600009F4D6C08F3609F46DC03FC1853709F434
:102170004AC0883709F485C0833709F036C10DC1DC
:10218000612F70E0A701CE010B960E94C42A892B13
:1021900009F448C1F60180819181A2819C014A2FF6
:1021A0002F5F3F4F4F4F208331834283FC012491A7
:1021B000A7FD2081AE01455F5F4FBE016F5F7F4F7E
:1021C000C4010E94D9092BC1612F70E0970141E041
:1021D00050E0CE010B960E940F17892B09F422C103
:1021E000F60180819181A2810196A11D8083918356
:1021F000A283AE01455F5F4FBE016F5F7F4FC40199
:102200000E94CE170CC1612F70E0970140E050E0B2
:10221000CE010B960E940F17892B09F403C1F6011A
:1022200080819181A2810196A11D80839183A283E7
:10223000AE01455F5F4FBE016F5F7F4FC4010E94DB
:102240003321EDC0612F70E0970140E050E0CE01F6
:102250000B960E940F17892B09F4E4C0F6018081C8
:102260009181A2810196A11D80839183A283AE01F9
:10227000455F5F4FBE016F5F7F4FC4010E942C1E00
:10228000CEC0612F70E0970140E050E0CE010B9688
:102290000E940F17892B09F4C5C0F6018081918136
:1022A000A2819C014A2F2F5F3F4F4F4F20833183E4
:1022B0004283FC012491A7FD208120C0970140E0CA
:1022C00050E060EF70E0CE010B960E940F17892B53
:1022D00009F4A8C0F60180819181A2810196A11D17
:1022E00080839183A2838B859C85892B31F400E0C8
:1022F00010E021ED33E040E08CC028E7AE01455FFF
:102300005F4FBE016F5F7F4FC4010E94D41387C02F
:10231000A501460D571D612F70E09701CE010B9668
:102320000E948A1B7FC0612F70E0A701CE010B962F
:102330000E94C42A892B09F475C0F601808191811D
:10234000A2819C014A2F2F5F3F4F4F4F2083318343
:102350004283FC012491A7FD2081AE01455F5F4FC0
:10236000BE016F5F7F4FC4010E942E0658C0103817
:1023700009F058C0F60180819181A2810196A11DCA
:1023800080839183A283D701ED91FC911197CF01B6
:1023900002968D939C93808126C0103809F042C02C
:1023A000F60180819181A2810196A11D8083918394
:1023B000A283D701ED91FC911197CF0103968D93E4
:1023C0009C9320813181428100E010E022C01038CE
:1023D00049F5F6012081318142812F5F3F4F4F4FF8
:1023E0002083318342838B870EC085E28B87F60181
:1023F0002082318242821A8219821E821D828FEFD0
:102400009FEF9C838B839E01255F3F4F40E801E057
:1024100010E0BE016F5F7F4FC4010E94E5258A0D69
:102420009B1D0AC0F60180819181A2810196A11DA8
:1024300080839183A283C50162960FB6F894DEBFB4
:102440000FBECDBFDF91CF911F910F91FF90EF9005
:10245000DF90CF90BF90AF909F908F907F906F90C4
:082460004F903F902F9008956A
:102468000F931F93CF93DF938C01D62FC42F109215
:10247800E4020E94E22FFC0190819C7F90830E94DD
:10248800E22FFC019181977E91838D2F90E0FC01D2
:102498003197EF30F10508F0A2C0EC5CFF4F0C94C7
:1024A800922F0E94E22FFC0190819160908397C047
:1024B8000E94E22FFC0190819260908390C00E945C
:1024C800E22FFC0190819360908389C00E94E22FE3
:1024D800FC0191819860918382C00E94E22FFC01E7
:1024E8009081916090830E94E22FFC019181986015
:1024F800918375C00E94E22FFC01908192609083C5
:102508000E94E22FFC0191819860918368C00E942B
:10251800E22FFC019081936090830E94E22FFC01DE
:102528009181986091835BC00E94E22FFC019181A8
:102538009061918354C00E94E22FFC0190819160C8
:1025480090830E94E22FFC0191819061918347C0A2
:102558000E94E22FFC019081926090830E94E22FFA
:10256800FC019181906191833AC00E94E22FFC01A5
:102578009081936090830E94E22FFC019181906189
:1025880091832DC00E94E22FFC0191819861918373
:1025980026C00E94E22FFC019081916090830E94E6
:1025A800E22FFC0191819861918319C00E94E22F6A
:1025B800FC019081926090830E94E22FFC0191813E
:1025C800986191830CC00E94E22FFC019081936076
:1025D80090830E94E22FFC019181986191830E946F
:1025E800E22FFC0190819F7090830E94DC2FFC01F8
:1025F8009181987D91834C2F50E0FA013197EB300F
:10260800F10508F092C0ED5BFF4F0C94922F0E94E9
:10261800DC2FFC019181916091830E94D92FFC01EC
:1026280094859068948781C00E94DC2FFC01918179
:10263800926091830E94D92FFC01948590689487B9
:1026480074C00E94DC2FFC019181946091830E94E8
:10265800D92FFC0194859068948767C00E94DC2F6D
:10266800FC019181906291830E94D92FFC0194858D
:10267800906894875AC00E94DC2FFC019181966073
:1026880091830E94D92FFC019485906894874DC04E
:102698000E94DC2FFC019181936091830E94D92FC5
:1026A800FC0194859068948740C00E94DC2FFC014F
:1026B8009181956091830E94D92FFC01948590683F
:1026C800948733C00E94DC2FFC0191819162918331
:1026D8000E94D92FFC0194859068948726C00E9497
:1026E800DC2FFC019181976091830E94D92FFC0116
:1026F80094859068948719C00E94DC2FFC01918111
:10270800976291830E94D92FFC01948590689487E1
:102718000CC00E94DC2FFC019181966091830E947D
:10272800D92FFC019485906894870E94D62FC3E71F
:10273800D2E0998388830E94E52F9B838A830E9435
:10274800DC2F9D838C830E94D32F9F838E830E94CE
:10275800E22F9987888781ED96E29B878A8787E0B1
:1027680097E29D878C8780E89DE29F878E8782E924
:102778009DE2998B888B87E59DE19B8B8A8B8BEEFD
:102788009CE29D8B8C8B86E1FE01D80101900D9215
:102798008A95E1F7C801DF91CF911F910F910895B4
:1027A800A4E1B0E0EAEDF3E10C94D42B98878F8391
:1027B8007A8369835C8B4B8B122FDB011296ED9128
:1027C800FC91139714962D913C9115973E832D8378
:1027D800ED90FC90119716962D903C901797F7FD69
:1027E80003C0E894E1F802C0E1E0F0E0C7018071BD
:1027F80099279A878987E4FE1FC0AB89BC892C91E9
:1028080011963C91119712964C91129713965C91E0
:10281800139714966C91149715967C9115971696A4
:102828008C91169717969C91A0E00E94AF2E21F0EC
:102838008D819E81029702C08D819E8197012870AB
:1028480033273C872B87E3FC0197AB89BC894C90E5
:1028580011965C90119712966C90129713967C9033
:10286800139714968C90149715969C901597169616
:10287800AC9016971796BC90A981BA811896CD90FE
:10288800DC901997B1E0CB1AD108D101AC0DBD1D70
:102898001C929C838B839F01281B390B3E872D87B5
:1028A800C70182709927988B8F87812F012E000C82
:1028B800990BDC01A154B109BA8BA98B32E0C3167C
:1028C800D10430F489859A85892B09F04CC073C0EE
:1028D8009201A301B401C501A0E00E94AF2E81F1CD
:1028E800B1E0CB1AD108C2018F7099278A309105BF
:1028F80014F4C09602C0895A9F4FE989FA897A97D9
:1029080048F49C012062215631092A31310510F41E
:102918000E94102FF101EC0DFD1D80832B813C815D
:10292800215031093C832B839201A301B401C501D5
:1029380004E00E949C2B29013A014B015C01BECFA7
:102948008D859E85AB81BC818A0F9B1F1816190641
:102958003CF21A161B060CF0B5CFEF85F889EF2B61
:1029680009F0BECFAFCFAB89BC892C9111963C91B1
:10297800119712964C91129713965C91139714968F
:102988006C91149715967C91159716968C911697BD
:1029980017969C91A0E00E94AF2E69F0F101EC0D12
:1029A800FD1D31971083B2E0CB1AD108F101EC0D6F
:1029B800FD1D80E38083EB85FC85EF2B41F0F1E082
:1029C800CF1AD108F101EC0DFD1D80E28083A981A9
:1029D800BA8118962D913C911997215031092C19DB
:1029E8003D09C20CD31CA60160E80D811E818F81B0
:1029F80098850E9403249C01EF81F885808191814C
:102A080090FF09C0A981BA8112968D919C91139764
:102A1800821793070CF4C9016496E2E10C94F02B39
:102A28004F925F926F927F92AF92BF92CF92DF9256
:102A3800EF92FF920F931F93CF93DF93CDB7DEB73B
:102A48002C970FB6F894DEBF0FBECDBF5C012A01EC
:102A58003B01690181E08093E50243EF51E06FE1BA
:102A6800CE0101960E94BD2C8CE0FE013196ADECA2
:102A7800B2E001900D928A95E1F7C301B2010E947C
:102A8800452EEFEBF2E028E93FE2318320832BEE7D
:102A98003FE23383228329E13FE23583248321E225
:102AA8003FE23783268321E03DE23187208721EF0B
:102AB8003FE2338722872DE73EE235872487992333
:102AC80034F40E94292FC301B2010E94532E90931F
:102AD800C5008093C40088E98093C10087E0C816C8
:102AE800D10449F150F4F5E0CF16D10409F43FC000
:102AF80086E0C816D10469F145C0E8E0CE16D104D5
:102B080079F0F9E0CF16D104E9F5E1ECF0E0808145
:102B180084608083E2ECF0E08081866080833CC042
:102B2800E1ECF0E080818B7F8083E2ECF0E0808153
:102B38008660808331C0E1ECF0E080818B7F808308
:102B4800E2ECF0E080818460808380818D7F8083E7
:102B580023C0E1ECF0E080818B7F8083E2ECF0E041
:102B680080818B7F808380818260808315C0E1ECC7
:102B7800F0E080818B7F8083E2ECF0E08081897FC8
:102B880080830AC0E1ECF0E080818B7F8083E2ECF7
:102B9800F0E08081866080830130110521F00230E9
:102BA800110539F00CC0E2ECF0E08081877F80836A
:102BB8000BC0E2ECF0E080818860808305C0E2EC25
:102BC800F0E08081877F808382E0E816F10461F07D
:102BD800E3E0EE16F10489F0EF28A9F4E2ECF0E066
:102BE80080818F7C808314C0E2ECF0E08081806279
:102BF800808380818F7E80830BC0E2ECF0E080814F
:102C08008063808305C0E2ECF0E080818F7C808364
:102C18000E94D92FFC012485206824878EE0EFEBE1
:102C2800F2E0D50101900D928A95E1F7C5012C9645
:102C38000FB6F894DEBF0FBECDBFDF91CF911F91C5
:102C48000F91FF90EF90DF90CF90BF90AF907F9063
:082C58006F905F904F9008950A
:102C60000F931F93CF93C82F8B0162E080912501B2
:102C7000909126010E94862F6091E70280912701A2
:102C8000909128010E94A72F0115110541F061E0E4
:102C900080912501909126010E94A72F07C061E035
:102CA00080912501909126010E94862F64E08091F9
:102CB0002501909126010E94A72FCC2344F4E09196
:102CC0002001F091210180818860808307C0E0911C
:102CD0002001F09121018081877F8083C6FF08C099
:102CE000E0912001F091210180818460808307C000
:102CF000E0912001F091210180818B7F8083C5FFCD
:102D000008C0E0912001F0912101808182608083E0
:102D100007C0E0912001F091210180818D7F8083A7
:102D2000C4FF08C0E0912001F09121018081816001
:102D3000808307C0E0912001F091210180818E7F86
:102D4000808364E080912501909126010E94862F66
:102D5000012B41F061E080912501909126010E94B4
:102D6000A72F07C061E080912501909126010E9464
:102D7000862F64E080912501909126010E94A72F63
:102D8000C3FF08C0E0912001F0912101808188609B
:102D9000808307C0E0912001F09121018081877F2D
:102DA0008083C2FF08C0E0912001F0912101808161
:102DB0008460808307C0E0912001F091210180812F
:102DC0008B7F8083C1FF08C0E0912001F091210139
:102DD00080818260808307C0E0912001F091210111
:102DE00080818D7F8083C0FF08C0E0912001F09139
:102DF000210180818160808307C0E0912001F091F2
:102E0000210180818E7F808364E0809125019091F3
:0E2E100026010E94862FCF911F910F910895E9
:102E1E000F931F93CF93DF93FC01D901683871058F
:102E2E0059F194F461387105D9F12CF460387105BB
:102E3E0009F483C0A5C06238710509F464C0643812
:102E4E00710509F47AC09CC0603A710509F453C04B
:102E5E002CF46039710509F456C092C0603C7105BE
:102E6E0009F443C0603F710509F08AC0CD91DC9131
:102E7E001197CE01039677C0CD91DC911197CE01BB
:102E8E0002968D939C93452B39F09881892F880F4C
:102E9E00880B9083818361C088818083118269C091
:102EAE00CD91DC911197CE0104968D939C93452B79
:102EBE0099F088819981AA81BB81AC01BD01770F00
:102ECE00440B542FBA0180839183A283B38344832E
:102EDE004583468347832EC0088119812A813B8111
:102EEE00008311832283338346C0CD91DC911197E9
:102EFE00CE01029638C0CD91DC911197CE0102968B
:102F0E008D939C9323C0CD91DC911197CE010896A1
:102F1E008D939C93788169815A814B813C812D815F
:102F2E009E818F8170836183528343833483258393
:102F3E009683878381E090E025C0CD91DC91119737
:102F4E00CE0102968D939C93452B79F09981288121
:102F5E00892F880F880B20839183828383838483B8
:102F6E0085838683E6CF8D939C9308811981008398
:102F7E001183128213821482158216821782DACF7F
:0E2F8E0080E090E0DF91CF911F910F910895A8
:102F9C00ADE0B0E0E4EDF7E10C94D42B9A8789878F
:102FAC007C836B83FA01DB011296CD90DC90139736
:102FBC0014968D919C9115979E838D83ED90FC902A
:102FCC001197FA82E98216960D90BC91A02DB887C4
:102FDC00AF832080318042805380648075808680EE
:102FEC0097808101B42DF52DE62D7B868C869D86F0
:102FFC009101A201B301C401A0E00E94AF2E4CF4D8
:10300C000E94FA2D8901B42FF52FE62F7B878C8730
:10301C009D87D7FC04C0E894E1F8FA82E98291011B
:10302C00A201B301C401A0E0ED80FE800E94AF2E8E
:10303C001CF0898182FF04C081E0E81AF10805C008
:10304C0083FF03C091E0E91AF108CE0101965C01FF
:10305C008AE0C82ED12C2B2F3F2F4E2F5B856C85F1
:10306C007D858B819C810E948D18FC019101A201B0
:10307C00B301C401A0E00E94AF2E1CF0898182FF35
:10308C0012C031970F8118850E0F1F1F9101A201DD
:10309C00B301C401A0E00E94AF2E14F08BE201C07A
:1030AC008DE2D80108C083FF07C03197AF81B88586
:1030BC00AE0FBF1F80E28C93E980FA80AB81BC819C
:1030CC0018962D913C911997215031092E1B3F0BCD
:1030DC008F819885E80FF91FAF0160E80D811E8183
:1030EC0089859A850E9403249C01A985BA858D91B6
:1030FC009C9190FF07C0EB81FC81828193818217A8
:0E310C0093070CF4C9012D96E2E10C94F02B10
:10311A00A2E1B0E0E3E9F8E10C94D42BFC010A8BBC
:10312A001B832C83732E642E552E462E7D83CC86CC
:10313A00D886BF82AE82268137813B872A87D5010E
:10314A008D919C9122813381408551851A01B1E08C
:10315A002B1A310837FF02C021E030E0EA85FB85EF
:10316A00E20DF31D10824701E1E0F0E0FA83E98302
:10317A00A9014E195F095E874D87DC01A270BB2742
:10318A00B88BAF87B885BB0FBB0BB98B2114310441
:10319A0009F451C02A893B814C81572D662D752D22
:1031AA00842D9D81A0E00E94AF2EB1F1E1E02E1A9C
:1031BA003108FC85F987AF2EB884C988DC2CEC2C41
:1031CA00FC2C0C2D1C2D2A893B814C81572D662DF8
:1031DA00752D842D9D810E946F2EC90129839A83A2
:1031EA00EA85FB85E20DF31D805D808321E0821A6A
:1031FA0091082A893B814C81572D662D752D842D86
:10320A009D810E94712E2A8B3B834C83752E662EDC
:10321A00572E482E9D83BACF8D859E85880D991D80
:10322A00181619061CF2181419042CF44F8558891B
:10323A00452B09F0BBCF89819A81892B41F4AE8154
:10324A00BF818D919C9111978F7E8D939C93C10123
:08325A006296E2E10C94F02BF6
:103262001F920F920FB60F9211242F933F934F93F9
:103272005F936F937F938F939F93AF93BF93EF93DC
:10328200FF9348E55AEC62EA7FEB81E891E00E9405
:10329200631F80914401813019F08230E1F16DC0E9
:1032A20060919701709198018091990190919A0192
:1032B20020E030E245E854E40E94B12F181664F48D
:1032C2001092810110928201109283011092840166
:1032D20082E08093440151C02091810130918201AA
:1032E200409183015091840166E67EE585E894E48D
:1032F2000E945D2F9B01AC0166E67EE585E894E4C1
:103302000E945D2F609397017093980180939901B9
:1033120090939A0132C060919701709198018091C7
:10332200990190919A0125EE30ED42EA5FE30E9405
:10333200AC2F882364F410928101109282011092C2
:1033420083011092840181E08093440116C0209190
:10335200810130918201409183015091840166E69E
:103362007EE585E894E40E945D2F60939701709357
:1033720098018093990190939A01FF91EF91BF91E7
:10338200AF919F918F917F916F915F914F913F91FB
:0C3392002F910F900FBE0F901F90189508
:10339E001F920F920FB60F9211242F933F934F93BC
:1033AE005F936F937F938F939F93AF93BF93CF93BF
:1033BE00DF93EF93FF938091780090E09093DA0281
:1033CE008093D9028091790090E0982F88272091E0
:1033DE00D9023091DA02822B932B9093DA028093EA
:1033EE00D9028091E3028430A0F48091E3028F5FD2
:1033FE008093E3022091D9023091DA028091DB02B0
:10340E009091DC02820F931F9093DC028093DB027B
:10341E0049C0E091DD02F091DE028091DB029091D5
:10342E00DC029595879595958795EE0FFF1FE155D3
:10343E00FD4F918380831092DC021092DB0210927A
:10344E00E3022091DD023091DE028091DF02909145
:10345E00E0022817390754F48091DD029091DE02C4
:10346E0001969093DE028093DD0204C01092DE027C
:10347E001092DD020E94DF2FFC019481907F9483D5
:10348E00E091DD02F091DE02EE0FFF1FE156FD4FDF
:10349E00C081D181CF70DD270E94DF2FFC012481F6
:1034AE00C22BC483FF91EF91DF91CF91BF91AF916A
:1034BE009F918F917F916F915F914F913F912F913E
:0A34CE000F900FBE0F901F9018958D
:1034D8000F931F93CF938C016091E702809127018E
:1034E800909128010E94862F6091E7028091200127
:1034F800909121010E94A72F62E08091250190916F
:1035080026010E94A72F0115110541F061E0809165
:103518002501909126010E94A72F07C061E08091A4
:103528002501909126010E94862F64E08091250153
:10353800909126010E94A72FE0912901F0912A017C
:10354800808183FF02C0C0E801C0C0E0808182FFA3
:1035580002C0C06401C0CF7B808181FF02C0C0620D
:1035680001C0CF7D808180FF02C0C06101C0CF7ED5
:1035780064E080912501909126010E94862F012BFD
:1035880041F061E080912501909126010E94A72FCA
:1035980007C061E080912501909126010E94862F45
:1035A80064E080912501909126010E94A72FE09167
:1035B8002901F0912A01808183FF02C0C86001C0FF
:1035C800C77F808182FF02C0C46001C0CB7F808139
:1035D80081FF02C0C26001C0CD7F808180FF02C030
:1035E800C16001C0CE7F64E08091250190912601E1
:0E35F8000E94862F8C2FCF911F910F91089566
:1036060010923202E5EBF1E029E53CE231832083BA
:1036160020E43BE23383228325E23CE235832483A4
:1036260022E83AE23783268328EC3DE23187208779
:1036360022E23BE23387228728E934E23587248772
:1036460028E936E23787268729ED30E2318B208B51
:103656002BE633E2338B228B20EE34E2358B248B40
:1036660023E03BE2378B268B22EA3FE2318F208F25
:103676002AE03EE2338F228F2EEB38E2358F248FFD
:103686002AE83EE2378F268F27E93EE231A320A3C0
:103696002FE33CE233A322A324EA3DE235A324A38D
:1036A6002BEB3EE237A326A323E639E231A720A778
:1036B60027E635E233A722A726EC3EE235A724A764
:1036C6002EE53BE237A726A72BE831E231AB20AB4C
:1036D6002AEE38E233AB22AB23EC3FE135AB24AB29
:1036E60023E332E237AB26AB2EEB3FE231AF20AF1E
:1036F6002CE73BE233AF22AF29E839E235AF24AFFE
:0E3706002EE3DC0101900D922A95E1F7089563
:10371400CF92DF92EF92CF93DF93DC01F90164380B
:10372400710509F43FC064F46138710531F1623800
:10373400710509F446C06038710509F05CC032C0F7
:1037440060397105F1F194F46838710509F053C0DA
:10375400C081D181CE01039691838083C880D980B2
:10376400EA80F601CD92DC92408342C0603A710552
:10377400C9F0603C7105B1F03EC0C081D181CE0179
:10378400039691838083C880D980EA80F601CD9224
:10379400DC92052E000C660B770B40835183628309
:1037A400738326C0C081D181CE0103969183808327
:1037B400C880D980EA80F601CD92DC92518340839F
:1037C40017C0C081D181CE01039691838083C880C4
:1037D400D980EA80F601CD92DC9251834083852F13
:1037E400880F880B8283838384838583868387837E
:1037F40081E090E002C080E090E0DF91CF91EF9013
:06380400DF90CF90089553
:10380A008F929F92AF92BF92CF92DF92EF92FF92E6
:10381A000F931F938B019C0157E1369527951795B6
:10382A0007955A95D1F71127A8014F5751094731E2
:10383A0051050CF045C057FD2DC00FEF1FEF2FE7C4
:10384A0030E004C035952795179507954A95D2F724
:10385A004801590186229722A822B92289288A2852
:10386A008B2871F197FF07C0DC01CB01800F911FF4
:10387A00A21FB31F02C0DC01CB0100951095209551
:10388A00309580239123A223B323482F392F2A2F3F
:10389A005B2F1AC097FF0FC08B019C01000F111FED
:1038AA00221F331F012B022B032B51F040E030E083
:1038BA0020E85FEB09C040E030E020E050E004C0BF
:1038CA00462F372F282F592F642F732F822F952F8A
:1038DA001F910F91FF90EF90DF90CF90BF90AF9024
:0638EA009F908F900895ED
:1038F000E0912301F0912401808187608083E09131
:103900002501F0912601808188608083E091270164
:10391000F091280190812091E702822F80959823D1
:103920009083E0912001F09121018081822B80839E
:10393000E0912B01F0912C0180818870809322010D
:103940002FEF89EF90E0215080409040E1F700C0D8
:10395000000060E070E080E30E94301622E62A95C5
:10396000F1F700C060E070E088E20E94301682E665
:103970008A95F1F700C060E070E088E20E9430169E
:1039800092E69A95F1F700C060E070E08CE00E944A
:10399000301622E62A95F1F700C060E070E081E081
:1039A0000E9430168FE99FE00197F1F700C00000F8
:1039B00060E070E084E00E9430160E94192E0E94A0
:1039C000A32E60E070E080E090E00E94322808952D
:1039D00010C00E946B2F58F00E94642F40F029F411
:1039E0005F3F29F00C948C2F51110C94732F0C9481
:1039F000FA2F0E943E2A68F39923B1F3552391F3DD
:103A0000951B550BBB27AA2762177307840738F04D
:103A10009F5F5F4F220F331F441FAA1FA9F335D0AA
:103A20000E2E3AF0E0E832D091505040E695001C5E
:103A3000CAF72BD0FE2F29D0660F771F881FBB1F18
:103A4000261737074807AB07B0E809F0BB0B802DF6
:103A5000BF01FF2793585F4F3AF09E3F510578F022
:103A60000C948C2F0C94732F5F3FE4F3983ED4F3A7
:103A7000869577956795B795F7959F5FC9F7880FF6
:103A8000911D9695879597F90895E1E0660F771F48
:103A9000881FBB1F621773078407BA0720F0621BD9
:0E3AA000730B840BBA0BEE1F88F7E0950895A8
:103AAE00CF93DF932091E402211162C0EC018FEFDE
:103ABE009FEF0E94802D8FEF9FEF0E94922D0E940C
:103ACE00E22FFC019181987F9183C830D105E9F0F6
:103ADE0048F4C330D105A9F1C530D105C9F12197FC
:103AEE00F1F50CC0C11581E0D807E9F0C11584E0ED
:103AFE00D80701F1C034D10591F50EC00E94E22F16
:103B0E00FC0191819160918330C00E94E22FFC01F3
:103B1E0091819260918329C00E94E22FFC019181D4
:103B2E009360918322C00E94E22FFC0191819460E8
:103B3E0091831BC00E94E22FFC01918195609183BD
:103B4E0014C00E94E22FFC019181966091830DC0FA
:103B5E000E94E22FFC0191819760918306C00E9422
:103B6E00E22FFC0191819560918381E08093E402C4
:063B7E00DF91CF910895D4
:103B84000FC00E94642F38F00E946B2F20F0952301
:103B940011F00C948C2F0C94FA2F11240C94732F85
:103BA4000E943E2A70F3959FC1F3950F50E0551F74
:103BB400629FF001729FBB27F00DB11D639FAA277E
:103BC400F00DB11DAA1F649F6627B00DA11D661FCD
:103BD400829F2227B00DA11D621F739FB00DA11DEE
:103BE400621F839FA00D611D221F749F3327A00DA8
:103BF400611D231F849F600D211D822F762F6A2F44
:103C040011249F5750409AF0F1F088234AF0EE0FA8
:103C1400FF1FBB1F661F771F881F91505040A9F7D5
:103C24009E3F510580F00C948C2F0C94732F5F3FB2
:103C3400E4F3983ED4F3869577956795B795F79511
:103C4400E7959F5FC1F7FE2B880F911D9695879589
:043C540097F908953F
:103C5800A2E0B0E0E2E3FEE10C94D42B1C014B019E
:103C6800FA01DB0112962D913C91139714964D9011
:103C78005C9015978D919C9111979A8389831696DC
:103C88006D907C90179737FD03C08D7F9A83898349
:103C98000081118122813381448155816681778138
:103CA800FE0131965F0188E0C82ED12C7201C40153
:103CB8000E948D18298124FF06C00197F301E80F9F
:103CC800F91F20E32083298123FF06C00197F30110
:103CD800E80FF91F20E22083E980FA80D4011896C2
:103CE8002D913C91199721503109281B390B860DCC
:103CF800971DAC0160E88201C1010E9403249C0168
:103D0800F1018081918190FF08C0D40112968D91B4
:103D18009C911397821793070CF4C9012296E2E14C
:043D28000C94F02BDC
:103D2C0011C00E94642F38F00E946B2F20F039F4E0
:103D3C009F3F19F426F40C94FA2F0EF4E095E7FB50
:103D4C000C948C2FE92F0E943E2A58F3BA17620765
:103D5C0073078407950720F079F4A6F50C94722F5D
:103D6C000EF4E0950B2EBA2FA02D0B01B90190018A
:103D7C000C01CA01A0011124FF27591B99F0593FCE
:103D8C0050F4503E68F11A16F040A22F232F342F16
:103D9C004427585FF3CF469537952795A795F04064
:103DAC005395C9F77EF41F16BA0B620B730B840B79
:103DBC00BAF09150A1F0FF0FBB1F661F771F881F31
:103DCC00C2F70EC0BA0F621F731F841F48F4879589
:103DDC0077956795B795F7959E3F08F0B0CF93957B
:0E3DEC00880F08F09927EE0F97958795089598
:103DFA00CF92DF92EF92FF920F931F93CF93DF93AD
:103E0A00EC01709324016093230150932C01409399
:103E1A002B0130932601209325011093280100934A
:103E2A002701F0922A01E0922901D0922101C09241
:103E3A0020018FE08093E702E9E8F2E080E396E16F
:103E4A00918380838CE69AE19383828389E19EE25F
:103E5A009583848386E59FE2978386838CED9EE231
:103E6A009187808787E19DE2938782878FEA99E22B
:103E7A009587848781ED9EE29787868783EA9EE20B
:103E8A00918B808B82E398E2938B828B86EB9DE207
:103E9A00958B848B0E94781C86E1E9E8F2E0DE01CA
:103EAA0001900D928A95E1F7CE01DF91CF911F9192
:0C3EBA000F91FF90EF90DF90CF900895E3
:103EC6008F929F92AF92BF92CF92DF92EF92FF9224
:103ED600CF93DF93EC014A015B01C880D980EA8069
:103EE600FB8020E030E0A901C501B4010E94AC2F9F
:103EF600882371F020E030E0A901C501B4010E94D9
:103F0600AC2F88236CF4B7FAB094B7F8B09408C015
:103F16000F2E812C912CF0E8AF2EFFE3BF2EF02D53
:103F260020E030E0A901C701B6010E94AC2F811143
:103F360008C00F2EC12CD12CF0E8EF2EFFE3FF2E88
:103F4600F02DA7019601C501B4010E94C62FA70155
:103F560096010E945D2F9B01AC01C701B6010E942C
:103F66005E2F688379838A839B83DF91CF91FF904D
:103F7600EF90DF90CF90BF90AF909F908F90089575
:103F86008F929F92AF92BF92CF92DF92EF92FF9263
:103F96000F931F93CF93DF936B017C01D42F20E007
:103FA60030E0A9010E94AC2F882334F4F7FAF0948C
:103FB600F7F8F0941FEF01C011E0C701B6010E94A7
:103FC60061284B015C010E94A8259B01AC01C70139
:103FD600B6010E945D2F6B017C0140E0C501B40172
:103FE6000E942425C82F11233CF4E82FF0E0ED5E53
:103FF600FD4F8DE28083CF5F0C2F10E00D5E1D4FCD
:10400600F801108283E192E00E94402B41E04C0FC0
:104016008EE2F80180832D2FC701B6010E941E2370
:1040260083E192E0DF91CF911F910F91FF90EF9086
:0E403600DF90CF90BF90AF909F908F90089535
:104044006F927F928F92CF92DF92EF92FF920F93B3
:104054001F93CF93DF93CDB7DEB761970FB6F89474
:10406400DEBF0FBECDBFFE01319651E1DF011D92CF
:104074005A95E9F7A2E0B1E0BA83A9839C838B83C4
:1040840077FF09C08FE490E09093B4018093B3016B
:104094008FEF9FEF1FC06115710521F0DB011197B0
:1040A400BF83AE833901842E7B016C019801682D96
:1040B400A301CF010E94A52CEF2861F04885598502
:1040C4002E813F814217530708F49A01F601E20F4B
:1040D400F31F108261960FB6F894DEBF0FBECDBFFA
:1040E400DF91CF911F910F91FF90EF90DF90CF90D0
:0840F4008F907F906F900895FA
:1040FC002F923F924F926F927F928F92CF92DF923C
:10410C00EF92FF920F931F93CF93DF93EC017B0100
:10411C006A013801822E822FB8010E942D2D182F92
:10412C00082F8091E502882339F0F7011082109254
:10413C00E502EE81FF810995EC81FD810995EC0189
:10414C001C01F0E84F2E842DB1010E942D2D8017FB
:10415C00D0F0BC017727611B71096C0F7D1F80E8C3
:10416C00482D93010E94A32A892B69F4642DA10187
:10417C00C7010E94612E642DA101C6010E94612E0F
:10418C008FEF8093E502CE01DF91CF911F910F91BC
:10419C00FF90EF90DF90CF908F907F906F904F902B
:0641AC003F902F900895E2
:1041B200CF93AC019C01ADECBCEC0E94282E9695ED
:1041C20087959695879596958795880F991F9C0157
:1041D200220F331F220F331F820F931F9A01281BB6
:1041E200390BC901805D80931302C1E01FC0EC2F1F
:1041F200F0E09A01ADECBCEC0E94282E96958795D2
:104202009695879596958795880F991F9C01220F01
:10421200331F220F331F820F931F9A01281B390B62
:10422200C901ED5EFD4F805D8083CF5F9A01ADECE9
:10423200BCEC0E94282EAC015695479556954795A1
:10424200569547954115510591F6EC2FF0E0ED5E3C
:10425200FD4F108283E192E00E94402B83E192E0C5
:04426200CF9108955B
:10426600A2E0B0E0E9E3F1E20C94D42B3C014B016F
:10427600FA01DB0112962D913C91139714964D90FD
:104286005C9015978D919C9111979A8389831696C8
:104296002D903C90179737FD03C08D7F9A838983B5
:1042A6000081118122813381448155816681778124
:1042B600FE0131965F018AE0C82ED12C7201C4013D
:1042C6000E948D18E980FA80D40118962D913C91B0
:1042D600199721503109281B390B820D931DAC010A
:1042E60060E88201C3010E9403249C01F3018081DE
:1042F600918190FF08C0D40112968D919C911397DD
:10430600821793070CF4C9012296E2E10C94F02B74
:10431600CF92DF92EF92FF92CF93DF93CDB7DEB7C6
:1043260028970FB6F894DEBF0FBECDBF6B017C0198
:1043360069837A838B839C832D833E834F8358873F
:10434600C216D306E406F5063CF4BE016B5F7F4F4A
:10435600CE0101960E94822A8D819E81AF81B88509
:10436600892B8A2B8B2B49F019C0C982DA82EB8202
:10437600FC826D837E838F83988769817A818B81A6
:104386009C81CD80DE80EF80F884A70196010E9493
:10439600D42C611571058105910539F76D817E81F2
:1043A6008F81988528960FB6F894DEBF0FBECDBFD5
:0E43B600DF91CF91FF90EF90DF90CF900895B0
:1043C40088249924F401E401B0E49F93AA279A1560
:1043D4008B049C04ED05FE05CF05D007A10798F4D6
:1043E400AD2FDC2FCF2FFE2FE92D982C892E982F5F
:1043F400872F762F652F542F432F322F2227B85023
:1044040031F7BF9127C01B2EBF91BB27220F331F4B
:10441400441F551F661F771F881F991F881C991CEE
:10442400EE1FFF1FCC1FDD1FAA1FBB1F8A149B0496
:10443400EC05FD05CE05DF05A007B10748F08A1895
:104444009B08EC09FD09CE09DF09A00BB10B216023
:104454001A94E1F62EF49401AF01BE01CD01000CD3
:024464000895B9
:10446600AB01BC011092130220E03CC0DB01CA0183
:104476008F709927AA27B078BB2354F40197A10916
:10448600B109806F9F6FAF6FBF6F0196A11DB11D00
:104496008A309105A105B10544F4E22FF0E0805D74
:1044A600ED5EFD4F80832F5F07C0E22FF0E0895C51
:1044B600ED5EFD4F80832F5FE22FF0E0ED5EFD4F56
:1044C6001082DB01CA0177231CF40F96A11DB11DD2
:1044D600AC01BD01689413F8759567955795479596
:1044E6001694D1F7411551056105710509F0BECF46
:0E44F60083E192E00E94402B83E192E0089562
:10450400CF92DF92EF92DC0190E0292F30E0220F6E
:10451400331F6901032E000CEE086E2DA6014C56C4
:104524005C4F6F4F6A01E62EFA018491E7FC8081AB
:1045340081110DC02F5F3F4F032E000C440B2C56EE
:104544003C4F4F4FF901849147FD808124C0CD90A9
:10455400DD90EC901297F6014491E7FC40818413BE
:1045640015C02F5F3F4F032E000C440B2C563C4FBD
:104574004F4FF901949147FD90815FEFC51AD50A19
:10458400E50ACD92DD92EC92129701C09F5F9B30B9
:0E45940008F4BBCF892FEF90DF90CF900895F1
:1045A2000F93CF93DF93CDB7DEB72E970FB6F89464
:1045B200DEBF0FBECDBF9C878B877E876D87488706
:1045C20029870A87DC013C91E1E0F0E0DF0102C0CB
:1045D200AA0FBB1F4A95E2F7AF0102C0440F551F55
:1045E2002A95E2F702C0EE0FFF1F0A95E2F74A2B67
:1045F200E42B232F2E2BDC012C93DB018C91E095F5
:10460200E823EC9387E0FE013896DE0111960190D3
:104612000D928A95E1F729813A814B815C816D8106
:104622007E818F8190E02E960FB6F894DEBF0FBE8A
:0A463200CDBFDF91CF910F910895E5
:10463C00CF92DF92EF92FF920F931F93CF93DF9362
:10464C00C42F122F20E030E040E251E40E94C62F2C
:10465C006B017C0129C001E00C0FD0E020E030E0C0
:10466C0040E452E4C701B6010E945E2F0E9461280B
:10467C00CD5EDD4F6883C701B6010E94612870E0F2
:10468C0080E090E00E94AA259B01AC01C701B60115
:10469C000E945D2F20E030E040E251E40E94C62FE2
:1046AC006B017C011150C02F1111D5CFEC2FF0E014
:1046BC00ED5EFD4F10828C2FDF91CF911F910F91EA
:0A46CC00FF90EF90DF90CF9008956B
:1046D600CF92DF92EF92FF920F931F93CF93DF93C8
:1046E6006B017C01992344F466277727CB016C196B
:1046F6007D098E099F0900C010E001C0102F01E05E
:10470600010FC12FD0E02AE030E040E050E00E94E7
:10471600D42C605DCD5EDD4F6883622F732F842FAE
:10472600952F161617061806190644F3FF2044F4AB
:10473600E02FF0E0ED5EFD4F8DE2808302E0010F99
:10474600E02FF0E0ED5EFD4F108283E192E00E94E3
:10475600402B83E192E0DF91CF911F910F91FF9063
:08476600EF90DF90CF90089561
:10476E000F931F93CF93DF93DB01109719F48FEF05
:10477E009FEF3DC02D913C91119730FF25C01796AC
:10478E004D915C91189715962D913C911697421765
:10479E00530778F41296ED91FC911397808312963D
:1047AE002D913C9113972F5F3F4F13963C932E9371
:1047BE00129717962D913C9118972F5F3F4F189691
:1047CE003C932E93179713C01D96ED91FC911E9757
:1047DE00309769F2EB01092F182F0995892B39F6BD
:1047EE008F819885019698878F83812F902FDF91E7
:0847FE00CF911F910F91089566
:104806006F927F928F92AF92BF92CF92DF92EF928A
:10481600FF920F931F93CF93DF935C013A01862E8D
:10482600E901670181E0C822DD24E0FC03C020170E
:10483600310758F09E01682DA301C5010E943D274E
:10484600C017D10710F0CE0118C07801EC1AFD0A86
:10485600E114F10449F0B50180E290E00E94B7232B
:1048660081E0E81AF108F4CFCD2831F49E01682DD5
:10487600A301C5010E943D27C801DF91CF911F9179
:104886000F91FF90EF90DF90CF90BF90AF908F90F9
:064896007F906F90089571
:10489C00A3E8B0E0E4E5F4E20C94DA2B5C01490106
:1048AC00CF57DF4F488359836A83C158D040C12CFE
:1048BC00D12CCF57DF4F2881C158D040CE57DF4F76
:1048CC009881C258D040CD57DF4F8881C358D04013
:1048DC00E22FF92F949187FD90819923E9F07401CF
:1048EC00860120E830E0AE014F5F5F4FBE016F578D
:1048FC007F4FC5010E94C80F8C0D9D1D8C159D0509
:10490C004CF48FE490E09093B4018093B3018FEF5B
:10491C009FEF03C06C01CDCFC601CD57DF4FECE04C
:04492C000C94F62BC6
:10493000EF92FF920F931F93CF93DF93EC018B01C4
:10494000CB0177230CF40196959587952FC09B0199
:10495000281B390B06C0ED92FC9251834083281B23
:10496000390B3323A4F0D901AA0FBB1FAC0FBD1F15
:104970004D915C911197FC01E20FF31FEE0FFF1FA9
:10498000EC0FFD1FE080F180E416F50624F36F5F65
:104990007F4F01C0BC0160177107CCF29C019923C5
:1049A00014F42F5F3F4FC901959587951816190686
:1049B0008CF3DF91CF911F910F91FF90EF900895AD
:1049C000CF92DF92EF92FF921F93CF93DF936B0111
:1049D0007C012AE030E040E050E00E94602A605D07
:1049E0006093130211E00FC0C12FD0E0C701B601E0
:1049F0002AE030E040E050E00E94602ACD5EDD4FCA
:104A0000605D68831F5FC701B6012AE030E040E0C7
:104A100050E00E94602A69017A01232B242B252B68
:104A200019F7E12FF0E0ED5EFD4F108283E192E097
:104A30000E94402B83E192E0DF91CF911F91FF9084
:084A4000EF90DF90CF90089584
:104A4800CF92DF92EF92FF921F93CF93DF936B0188
:104A58007C0111E0140FC42FD0E02AE030E040E0E0
:104A680050E00E94602A605DCD5EDD4F68830FC014
:104A7800C12FD0E0C701B6012AE030E040E050E0A5
:104A88000E94602A605DCD5EDD4F68831F5FC701AD
:104A9800B6012AE030E040E050E00E94602A690157
:104AA8007A01232B242B252B19F7E12FF0E0ED5E5B
:104AB800FD4F1082812FDF91CF911F91FF90EF90D2
:064AC800DF90CF9008957D
:104ACE004F925F926F927F92AF92BF92CF92DF9290
:104ADE00EF92FF920F931F93CF93DF93CDB7DEB775
:104AEE0029013A019B01AC012419350946095709E0
:104AFE0089899A89AB89BC89BC01CD016A197B0968
:104B0E008C099D090E94EA2DA801970124193509E7
:104B1E00460957090E94D42CC601B501620F731FB6
:104B2E00841F951FDF91CF911F910F91FF90EF90F2
:104B3E00DF90CF90BF90AF907F906F905F904F902F
:024B4E000895C8
:104B5000E89409C097FB3EF4909580957095619517
:104B60007F4F8F4F9F4F9923A9F0F92F96E9BB27CD
:104B70009395F695879577956795B795F111F8CF49
:104B8000FAF4BB0F11F460FF1BC06F5F7F4F8F4FB4
:104B90009F4F16C0882311F096E911C0772321F0AA
:104BA0009EE8872F762F05C0662371F096E8862F42
:104BB00070E060E02AF09A95660F771F881FDAF799
:0A4BC000880F9695879597F90895E0
:104BCA006F927F928F92CF92DF92EF92FF920F9322
:104BDA001F93CF93DF936C01FB013901842EC80127
:104BEA00C281D38104811581E080F180232B242B9B
:104BFA0031F42AEC622E23E0722E20E0822E0097F6
:104C0A0021F4882DB3010E942D2DD7FD04C0C817A9
:104C1A00D90708F4CE019C01682DA301C6010E94A0
:104C2A000324DF91CF911F910F91FF90EF90DF90B6
:0A4C3A00CF908F907F906F90089547
:104C4400DC012D913D914C911297F901849147FD1E
:104C540080818A3221F080E090E07AE011C02F5FF9
:104C64003F4F4F4F2D933D934C93DB01ED91FC91BE
:104C74001197CF0102968D939C9380819181089521
:104C84002D913D914C911297F901549147FD50811A
:104C940050535A3080F4789FF001799FF00D11241D
:104CA400CF01850F911D2F5F3F4F4F4F2D933D93A4
:084CB4004C931297E5CF08951F
:104CBC00FC01662371F0A581B6812C9181E090E016
:104CCC00008002C0880F991F0A94E2F7822B8C9304
:104CDC000EC0A581B6812C9181E090E0008002C0CD
:104CEC00880F991F0A94E2F7809582238C93A581F3
:104CFC00B6814C9121E030E0C901018002C0880FDF
:104D0C00991F0A94E2F7842B8C93A581B6818C9120
:104D1C00018002C0220F331F0A94E2F7209528234A
:044D2C002C93089527
:104D30000F931F93CF938C0199232CF488279927E5
:104D4000801B910B00C040E001C04C2FC1E0C40F9C
:104D5000242F30E06AE070E00E946C2D805DF90144
:104D6000ED5EFD4F8083862F972F181619066CF382
:104D7000112344F4EC2FF0E0ED5EFD4F8DE28083D3
:104D8000C2E0C40FEC2FF0E0ED5EFD4F108283E136
:104D900092E00E94402B83E192E0CF911F910F910E
:024DA000089574
:104DA200CF93C82F0E94E22FFC0190819F739083C2
:104DB200C23089F0C330E1F0C13031F50E94CA2F10
:104DC200FC019181926091830E94E22FFC0190810B
:104DD2009064908319C00E94CA2FFC019181926055
:104DE20091830E94E22FFC019081906890830CC015
:104DF2000E94CA2FFC019181926091830E94E22F4E
:0C4E0200FC019081906C9083CF9108958A
:104E0E00CF93C82F0E94E22FFC0190819F7C90834C
:104E1E00C23089F0C330E1F0C13031F50E94CA2FA3
:104E2E00FC019181946091830E94E22FFC0190819C
:104E3E009061908319C00E94CA2FFC0191819460E9
:104E4E0091830E94E22FFC019081906290830CC0AE
:104E5E000E94CA2FFC019181946091830E94E22FDF
:0C4E6E00FC01908190639083CF91089527
:104E7A006F927F928F92CF92DF92EF920F931F934E
:104E8A00CF93DF938C016A01E62EE9013A01862E5F
:104E9A00620E731E811C37FD8A94C614D704E80477
:104EAA0079F0F6018491E7FC8081B801082E000CA4
:104EBA00990B0E94B7238FEFC81AD80AE80AEDCFD8
:104ECA00CE01DF91CF911F910F91EF90DF90CF909C
:084EDA008F907F906F90089506
:104EE2001F920F920FB60F9211242F933F934F935D
:104EF2005F936F937F938F939F93AF93BF93EF9340
:104F0200FF930E94412F8091C1006091C60060937F
:104F1200E602E091D302F091D4028DEC92E0099581
:104F2200FF91EF91BF91AF919F918F917F916F917F
:104F32005F914F913F912F910F900FBE0F901F9055
:024F42001895C0
:104F44000E94CA2F20E044E062E001960E940328F8
:104F54000E94CA2F23E044E062E002960E940328E4
:104F64000E94CD2F20E044E062E001960E940328D5
:104F74000E94CD2F23E044E062E002960E940328C1
:104F84000E94D02F20E042E062E001960E940328B4
:104F94000E94D02F23E042E062E002960E940328A0
:024FA40008956E
:104FA600CF93DF93CDB7DEB760970FB6F894DEBF29
:104FB6000FBECDBF0E943D2929873A874B875C8764
:104FC6006D877E8783E79CE2988B8F8788E0FE015A
:104FD6003996DE01119601900D928A95E1F72981A5
:104FE6003A814B815C816D817E818F819885609647
:104FF6000FB6F894DEBF0FBECDBFDF91CF910895F7
:10500600CF93DF93DC018C91483030F5662321F194
:10501600E62FF0E0E40FF11D3997F4F4E1E0F0E05B
:10502600EF0102C0CC0FDD1F6A95E2F7BE016150A9
:10503600962F922370E0042E02C0660F771F0A9403
:10504600E2F760956823292F30E002C0220F331F54
:0E5056004A95E2F7262B2C93DF91CF91089517
:10506400262F8130910581F030F082309105A9F02E
:105074000397E1F0089560E070E080E8820F0E94F9
:1050840030160E94192E089560E070E080EC820FC3
:105094000E9430160E94192E089560E070E084E9A1
:1050A400820F0E9430160E94192E089560E070E06D
:0E50B40084ED820F0E9430160E94192E08957E
:1050C2000E94462A88F09F5798F0B92F9927B75126
:1050D200B0F0E1F0660F771F881F991F1AF0BA959A
:1050E200C9F714C0B13091F00E94722FB1E0089557
:1050F2000C94722F672F782F8827B85F39F0B93F49
:10510200CCF3869577956795B395D9F73EF490954C
:0E5112008095709561957F4F8F4F9F4F089548
:10512000DC01483050F5662341F1862F90E0840F72
:10513000911D099714F5E1E0F0E0CF0102C0880F5E
:10514000991F6A95E2F7BC016150962F92238C91CA
:10515000262F30E0042E02C0220F331F0A94E2F7FC
:10516000209528232C938C91292F30E002C0220F08
:0C517000331F4A95E2F7282B2C9308957A
:10517C00CF92DF92EF926B01E82E80E090E0A0E0FE
:10518C00B0E00FC030E020533109880F991FAC01FB
:10519C00440F551F440F551F840F951F820F931FEB
:1051AC0011964E2D96012A0F3B1F411DB7FD4A95B6
:1051BC00F901249147FD208130ED320F3A3010F384
:0851CC00EF90DF90CF900895F1
:1051D4009C012150310981E090E002C0880F991FA1
:1051E4002A95E2F720E030E014C0AC0146235723AF
:1051F400452B31F041E3F901ED5EFD4F408305C0DD
:1052040040E3F901ED5EFD4F4083969587952F5F4E
:105214003F4F009751F7F901ED5EFD4F108283E196
:0452240092E0089577
:10522800EF920F93CF93DF93EC01CB01BA01422F9A
:10523800202F0E2D0E94D122288339834A835B8335
:105248006C837D838E838EE596E298878F8384EEC8
:105258009AE29A8789878CE19AE29C878B8788EB08
:105268009BE29E878D87CE01DF91CF910F91EF90C2
:02527800089597
:10527A00CF93DF93CDB7DEB72C970FB6F894DEBF86
:10528A000FBECDBF1F82188686E0FE013796DE016B
:10529A00119601900D928A95E1F729813A814B8105
:1052AA005C816D817E8180E090E02C960FB6F89447
:0C52BA00DEBF0FBECDBFDF91CF91089585
:1052C600AC01FB01ED5EFD4F108220E030E018C01E
:1052D600FA01E20FF31F908191110CC007C0F9018A
:1052E600ED5EFD4F80E280832F5F3F4F2617370725
:1052F600B4F309C0F901ED5EFD4F90832F5F3F4F78
:0C530600261737072CF383E192E008958E
:105312006F927F928F92CF92DF92EF92DC013A01ED
:10532200862E20E030E006C0FD01E20FF31F9083DD
:105332002F5F3F4FE82C6301C20ED31EE11C37FDE5
:10534200EA94F6019491E7FC90819111EDCFEF90F0
:0C535200DF90CF908F907F906F900895B7
:10535E00CF92DF92EF92CF93DF936B01E82ED42F93
:10536E00C0E009C09FEFC91AD90AE90ACF5FDC175E
:10537E0068F00E94562FF6018491E7FC808181111E
:10538E00F1CF04C080E20E94562FCF5FCD17D0F32D
:0C539E00DF91CF91EF90DF90CF90089549
:1053AA00990F0008550FAA0BE0E8FEEF161617062C
:1053BA00E807F907C0F012161306E407F50798F094
:1053CA00621B730B840B950B39F40A2661F0232BAD
:1053DA00242B252B21F408950A2609F4A140A69529
:0853EA008FEF811D811D089564
:1053F200483000F56623F1F0262F30E0240F311DEE
:1054020029303105BCF421E030E002C0220F331F05
:105412006A95E2F7215030E0042E02C0220F331FBA
:105422000A94E2F790E08223932302C09595879530
:065432004A95E2F708951F
:105438000F931F93CF93DF938C01D62FC0E010C03A
:1054480087E090E08C1B910961E070E002C0660F74
:10545800771F8A95E2F76D23C8010E945E26CF5F09
:10546800C83070F3C8010E94B82BDF91CF911F910B
:045478000F910895F3
:10547C0057FD9058440F551F59F05F3F71F04795F9
:10548C00880F97FB991F61F09F3F79F087950895DE
:10549C00121613061406551FF2CF4695F1DF08C0FD
:1054AC00161617061806991FF1CF8695710561051A
:0454BC0008940895B3
:1054C000A1E21A2EAA1BBB1BFD010DC0AA1FBB1F08
:1054D000EE1FFF1FA217B307E407F50720F0A21B7A
:1054E000B30BE40BF50B661F771F881F991F1A94E7
:1054F00069F760957095809590959B01AC01BD0111
:04550000CF0108953A
:10550400CF92DF92EF92FF920F931F93FC010081E1
:10551400118122813381FB01C080D180E280F3803C
:10552400FC01C082D182E282F382FB0100831183F9
:10553400228333831F910F91FF90EF90DF90CF90E0
:025544000895C8
:10554600CF92DF92EF926B01E82EF6018491E7FC91
:105556008081F901549147FD508185130BC0882342
:1055660041F08FEFC81AD80AE80A2F5F3F4F4F4F16
:10557600ECCF582F90E0851B9109EF90DF90CF90EC
:02558600089586
:10558800FA0160387105CCF0623871051CF0633897
:10559800710599F4A081B1819D012C5F3F4F318342
:1055A80020834D915D916D917C91FC0140835183E5
:1055B8006283738381E090E0089580E090E008952D
:1055C8000F931F93CF93DF938C01D62FC0E00DC0AC
:1055D80061E070E00C2E02C0660F771F0A94E2F7B4
:1055E8006D23C8010E945E26CF5FC83088F3C801CA
:0E55F8000E94B82BDF91CF911F910F91089563
:10560600CF93DF93EC01BC0180E80E94592C0197EF
:105616000BC0FE01E80FF91F2081203221F029304E
:1056260011F02A3019F4019799239CF79C012F5FFA
:0E5636003F4FC20FD31F1882DF91CF9108950E
:10564400DC0140E050E020E030E00DC0E92FF0E064
:10565400E617F70731F0FD01E40FF51F90834F5F64
:105664005F4F2F5F3F4FFD01E20FF31F90819111B8
:0C567400EDCFFD01E40FF51F108208953A
:10568000CF93DF93EC01BC0180E80E94592C019775
:1056900020E030E00DC0DE01A20FB31F4C91FE01EF
:1056A000E80FF91F50815C9340832F5F3F4F0197B4
:0C56B0002817390784F3DF91CF9108958B
:1056BC00AC019C01ADECBCEC0E94282EFC01F695D3
:1056CC00E795F695E795F695E7959F01220F331F21
:1056DC00C901880F991F880F991F820F931F481BB0
:0C56EC00590B8E2F8295807F840F08954B
:1056F8000F931F93CF93DF93CDB7DEB7FE01379695
:105708002191319141918F016FE170E083E192E045
:105718000E94222099231CF480E090E002C083E1DB
:0C57280092E0DF91CF911F910F91089546
:1057340097FB10F8169400080F93083098F008505F
:10574400232F342F452F562F672F782F892F902DF5
:10575400F4CF0594979587957795679557954795D1
:0C576400379527950A95AAF70F91089534
:10577000FC01A581B6814C9121E030E0C901028095
:1057800002C0880F991F0A94E2F7842B8C93A5819D
:10579000B6818C91028002C0220F331F0A94E2F777
:0857A000209528232C930895A5
:1057A8002F923F924F925F926F927F928F929F9229
:1057B800AF92BF92CF92DF92EF92FF920F931F9317
:1057C800CF93DF93CDB7DEB7CA1BDB0B0FB6F894C8
:0857D800DEBF0FBECDBF099436
:1057E0002A88398848885F846E847D848C849B8471
:1057F000AA84B984C884DF80EE80FD800C811B817F
:10580000AA81B981CE0FD11D0FB6F894DEBF0FBEAD
:06581000CDBFED0108957B
:10581600CF93DF93FC01A281B381662381F084815B
:105826009581A817B90729F4A081B181ED012196C8
:1058360002C0ED0121966C931882D383C283DF9157
:04584600CF91089561
:10584A0021E030E0042E02C0220F331F0A94E2F74F
:10585A0021503109822393236223732386279727B2
:10586A006823792302C0660F771F4A95E2F7862BD1
:04587A00972B0895CB
:10587E0070E06150710921E030E002C0220F331F49
:10588E006A95E2F7A90141505109B90168237923BC
:10589E00672B29F084239523821B930B0895842371
:0458AE0095230895A1
:1058B200CF92DF92EF926B01E82E80E090E001C080
:1058C20001964E2D9601280F391F411D97FD4A95CD
:1058D200F901249147FD20812111F2CFEF90DF9051
:0458E200CF900895C6
:1058E600CF93DF93EC01898188836983CE010E947F
:1058F6009D2F8A83CE010E94802F8B83CE010E942A
:10590600482F8C83CE010E944F2F8D83DF91CF913C
:025916000895F2
:10591800CF92DF92EF926A01E62EDC01280F391F41
:10592800A217B30751F0F6014491E7FC40814D936B
:105938004FEFC41AD40AE40AF3CFEF90DF90CF9068
:025948000895C0
:10594A00A2E0B0E0EBEAFCE20C94E22B8C013A8391
:10595A0029839E012F5F3F4F0E944E24F801208128
:10596A0024FF02C08FEF9FEF2296E4E00C94FE2BF7
:10597A00FC015183408353834283460F511D558353
:10598A0044838BE09CE2978386838AEB9FE291872C
:0E599A0080878DEF9EE293878287CF0108956C
:1059A800052E97FB1EF400940E94312F57FD07D057
:1059B8000E94602A07FC03D04EF40C94312F5095B6
:0E59C8004095309521953F4F4F4F5F4F08950A
:1059D600CF93DF930E94E22FFC019181987F918300
:1059E6000E94E22FEC0180E090E00E94372E9D831A
:0C59F6008C831092E402DF91CF910895A1
:105A0200CF93DF93E1ECF0E09081906290838093FA
:105A1200C600C8E5D2E001C021970E94B62F8111CD
